{
  "contractName": "Gasless",
  "abi": [
    {
      "constant": true,
      "inputs": [],
      "name": "DOMAIN_SEPARATOR",
      "outputs": [
        {
          "internalType": "bytes32",
          "name": "",
          "type": "bytes32"
        }
      ],
      "payable": false,
      "stateMutability": "view",
      "type": "function"
    },
    {
      "constant": true,
      "inputs": [],
      "name": "SWAP_TYPEHASH",
      "outputs": [
        {
          "internalType": "bytes32",
          "name": "",
          "type": "bytes32"
        }
      ],
      "payable": false,
      "stateMutability": "view",
      "type": "function"
    },
    {
      "constant": true,
      "inputs": [],
      "name": "SEND_TYPEHASH",
      "outputs": [
        {
          "internalType": "bytes32",
          "name": "",
          "type": "bytes32"
        }
      ],
      "payable": false,
      "stateMutability": "view",
      "type": "function"
    },
    {
      "constant": true,
      "inputs": [
        {
          "internalType": "address",
          "name": "",
          "type": "address"
        }
      ],
      "name": "nonces",
      "outputs": [
        {
          "internalType": "uint256",
          "name": "",
          "type": "uint256"
        }
      ],
      "payable": false,
      "stateMutability": "view",
      "type": "function"
    },
    {
      "inputs": [
        {
          "internalType": "address",
          "name": "initialRelayer",
          "type": "address"
        },
        {
          "internalType": "address",
          "name": "MCDaddress",
          "type": "address"
        },
        {
          "internalType": "address",
          "name": "UniswapExchangeAddress",
          "type": "address"
        },
        {
          "internalType": "uint256",
          "name": "chainId",
          "type": "uint256"
        }
      ],
      "payable": false,
      "stateMutability": "nonpayable",
      "type": "constructor"
    },
    {
      "anonymous": false,
      "inputs": [
        {
          "indexed": false,
          "internalType": "address",
          "name": "newRelayer",
          "type": "address"
        }
      ],
      "name": "RelayerChange",
      "type": "event"
    },
    {
      "constant": false,
      "inputs": [
        {
          "internalType": "address",
          "name": "newRelayer",
          "type": "address"
        }
      ],
      "name": "changeRelayer",
      "outputs": [],
      "payable": false,
      "stateMutability": "nonpayable",
      "type": "function"
    },
    {
      "constant": false,
      "inputs": [
        {
          "internalType": "address",
          "name": "to",
          "type": "address"
        },
        {
          "internalType": "uint256",
          "name": "value",
          "type": "uint256"
        },
        {
          "internalType": "uint256",
          "name": "nonce",
          "type": "uint256"
        },
        {
          "internalType": "uint256",
          "name": "fee",
          "type": "uint256"
        },
        {
          "internalType": "uint256",
          "name": "deadline",
          "type": "uint256"
        },
        {
          "internalType": "uint8",
          "name": "v",
          "type": "uint8"
        },
        {
          "internalType": "bytes32",
          "name": "r",
          "type": "bytes32"
        },
        {
          "internalType": "bytes32",
          "name": "s",
          "type": "bytes32"
        }
      ],
      "name": "send",
      "outputs": [],
      "payable": false,
      "stateMutability": "nonpayable",
      "type": "function"
    },
    {
      "constant": false,
      "inputs": [
        {
          "internalType": "uint256",
          "name": "dai_sold",
          "type": "uint256"
        },
        {
          "internalType": "uint256",
          "name": "min_eth",
          "type": "uint256"
        },
        {
          "internalType": "uint256",
          "name": "nonce",
          "type": "uint256"
        },
        {
          "internalType": "uint256",
          "name": "fee",
          "type": "uint256"
        },
        {
          "internalType": "uint256",
          "name": "deadline",
          "type": "uint256"
        },
        {
          "internalType": "uint8",
          "name": "v",
          "type": "uint8"
        },
        {
          "internalType": "bytes32",
          "name": "r",
          "type": "bytes32"
        },
        {
          "internalType": "bytes32",
          "name": "s",
          "type": "bytes32"
        }
      ],
      "name": "daiToEthSwap",
      "outputs": [],
      "payable": false,
      "stateMutability": "nonpayable",
      "type": "function"
    },
    {
      "constant": false,
      "inputs": [],
      "name": "approveUniswap",
      "outputs": [],
      "payable": false,
      "stateMutability": "nonpayable",
      "type": "function"
    }
  ],
  "bytecode": "0x608060405260001960005534801561001657600080fd5b50604051610f03380380610f038339818101604052608081101561003957600080fd5b5080516020820151604080840151606090940151600180546001600160a01b038086166001600160a01b031992831617909255600280548389169083161790556003805492871692909116919091179055905192939192806052610eb18239604080519182900360520182207f4761736c657373206279204d6f73656e646f0000000000000000000000000000835281519283900360120183208383018352600184527f3100000000000000000000000000000000000000000000000000000000000000602094850152825180850192909252818301527fc89efdaa54c0f20c7adf612882df0950f5a951637e0307cdcb4c672f298b8bc66060820152608081018590523060a0808301919091528251808303909101815260c09091019091528051910120600455506101736001600160e01b0361017c16565b50505050610220565b60015460025460008054604080517f095ea7b30000000000000000000000000000000000000000000000000000000081526001600160a01b039485166004820152602481019290925251929093169263095ea7b39260448083019360209383900390910190829087803b1580156101f257600080fd5b505af1158015610206573d6000803e3d6000fd5b505050506040513d602081101561021c57600080fd5b5050565b610c828061022f6000396000f3fe608060405234801561001057600080fd5b50600436106100885760003560e01c80637ecebe001161005b5780637ecebe00146100df578063c15af8ff14610105578063d5457baf14610159578063e1c3ea601461016157610088565b80633644e5151461008d57806348d23829146100a75780634bc30ea7146100cf57806357c6559e146100d7575b600080fd5b6100956101ac565b60408051918252519081900360200190f35b6100cd600480360360208110156100bd57600080fd5b50356001600160a01b03166101b2565b005b61009561024f565b61009561026a565b610095600480360360208110156100f557600080fd5b50356001600160a01b0316610285565b6100cd600480360361010081101561011c57600080fd5b506001600160a01b038135169060208101359060408101359060608101359060808101359060ff60a0820135169060c08101359060e00135610297565b6100cd61060b565b6100cd600480360361010081101561017857600080fd5b5080359060208101359060408101359060608101359060808101359060ff60a0820135169060c08101359060e00135610696565b60045481565b6003546001600160a01b031633146101fb5760405162461bcd60e51b8152600401808060200182810382526036815260200180610b3c6036913960400191505060405180910390fd5b600380546001600160a01b0383166001600160a01b0319909116811790915560408051918252517f4108c8d727bf04fda7189ec8e40fd3af4c05ef3fc22240c756db2ab061b1de0e9181900360200190a150565b604051806072610b7282396072019050604051809103902081565b60405180606a610be48239606a019050604051809103902081565b60056020526000908152604090205481565b6003546001600160a01b031633146102e05760405162461bcd60e51b8152600401808060200182810382526036815260200180610b3c6036913960400191505060405180910390fd5b83421115610328576040805162461bcd60e51b815260206004820152601060248201526f111958591b1a5b9948195e1c1a5c995960821b604482015290519081900360640190fd5b60006004546040518080610be4606a91396040805191829003606a0182206003546020808501929092526001600160a01b03908116848401528e166060840152608083018d905260a083018b90523a60c084015260e083018c90526101008084018b9052825180850390910181526101208401835280519082012061190160f01b610140850152610142840195909552610162808401959095528151808403909501855261018283018083528551958201959095206000958690526101a2840180845281905260ff8a166101c28501526101e284018990526102028401889052915191955060019350610222808401939192601f1981019281900390910190855afa15801561043b573d6000803e3d6000fd5b505060408051601f1901516001600160a01b038116600090815260056020529190912054909250891490506104a7576040805162461bcd60e51b815260206004820152600d60248201526c496e76616c6964206e6f6e636560981b604482015290519081900360640190fd5b6001600160a01b0380821660009081526005602052604090208054600190810190915554166323b872dd828c6104e38d8c63ffffffff610a5b16565b6040518463ffffffff1660e01b815260040180846001600160a01b03166001600160a01b03168152602001836001600160a01b03166001600160a01b031681526020018281526020019350505050602060405180830381600087803b15801561054b57600080fd5b505af115801561055f573d6000803e3d6000fd5b505050506040513d602081101561057557600080fd5b5050600154604080516323b872dd60e01b81526001600160a01b038481166004830152336024830152604482018b9052915191909216916323b872dd9160648083019260209291908290030181600087803b1580156105d357600080fd5b505af11580156105e7573d6000803e3d6000fd5b505050506040513d60208110156105fd57600080fd5b505050505050505050505050565b600154600254600080546040805163095ea7b360e01b81526001600160a01b039485166004820152602481019290925251929093169263095ea7b39260448083019360209383900390910190829087803b15801561066857600080fd5b505af115801561067c573d6000803e3d6000fd5b505050506040513d602081101561069257600080fd5b5050565b6003546001600160a01b031633146106df5760405162461bcd60e51b8152600401808060200182810382526036815260200180610b3c6036913960400191505060405180910390fd5b83421115610727576040805162461bcd60e51b815260206004820152601060248201526f111958591b1a5b9948195e1c1a5c995960821b604482015290519081900360640190fd5b60006004546040518080610b7260729139604080519182900360720182206003546020808501929092526001600160a01b031683830152606083018e9052608083018d905260a083018b90523a60c084015260e083018c90526101008084018b9052825180850390910181526101208401835280519082012061190160f01b610140850152610142840195909552610162808401959095528151808403909501855261018283018083528551958201959095206000958690526101a2840180845281905260ff8a166101c28501526101e284018990526102028401889052915191955060019350610222808401939192601f1981019281900390910190855afa158015610838573d6000803e3d6000fd5b505060408051601f1901516001600160a01b038116600090815260056020529190912054909250891490506108a4576040805162461bcd60e51b815260206004820152600d60248201526c496e76616c6964206e6f6e636560981b604482015290519081900360640190fd5b6001600160a01b038082166000818152600560209081526040808320805460019081019091555481516323b872dd60e01b81526004810195909552336024860152604485018d905290519416936323b872dd93606480820194918390030190829087803b15801561091457600080fd5b505af1158015610928573d6000803e3d6000fd5b505050506040513d602081101561093e57600080fd5b50506001546001600160a01b03166323b872dd82306109638e8c63ffffffff610a5b16565b6040518463ffffffff1660e01b815260040180846001600160a01b03166001600160a01b03168152602001836001600160a01b03166001600160a01b031681526020018281526020019350505050602060405180830381600087803b1580156109cb57600080fd5b505af11580156109df573d6000803e3d6000fd5b505050506040513d60208110156109f557600080fd5b505060025460408051637237e03160e01b8152600481018d9052602481018c9052604481018990526001600160a01b03848116606483015291519190921691637237e0319160848083019260209291908290030181600087803b1580156105d357600080fd5b6000610a9d83836040518060400160405280601e81526020017f536166654d6174683a207375627472616374696f6e206f766572666c6f770000815250610aa4565b9392505050565b60008184841115610b335760405162461bcd60e51b81526004018080602001828103825283818151815260200191508051906020019080838360005b83811015610af8578181015183820152602001610ae0565b50505050905090810190601f168015610b255780820380516001836020036101000a031916815260200191505b509250505060405180910390fd5b50505090039056fe4f6e6c79207468652072656c61796572206164647265737320697320617574686f72697a656420746f2073656e6420746869732074785377617028616464726573732072656c617965722c75696e74323536206461695f736f6c642c75696e74323536206d696e5f6574682c75696e74323536206665652c75696e743235362067617370726963652c75696e74323536206e6f6e63652c75696e7432353620646561646c696e652953656e6428616464726573732072656c617965722c6164647265737320746f2c75696e743235362076616c75652c75696e74323536206665652c75696e743235362067617370726963652c75696e74323536206e6f6e63652c75696e7432353620646561646c696e6529a265627a7a72315820a36cb2e098353f8322f77d3958531dbd8355f4d2e5c166c21e3070bb8097dcc664736f6c634300050b0032454950373132446f6d61696e28737472696e67206e616d652c737472696e672076657273696f6e2c75696e7432353620636861696e49642c6164647265737320766572696679696e67436f6e747261637429",
  "source": "pragma solidity 0.5.11;\n\nimport \"openzeppelin-solidity/contracts/math/SafeMath.sol\";\n\ninterface MCD {\n    function approve(address usr, uint wad) external returns (bool);\n    function permit(address holder, address spender, uint256 nonce, uint256 expiry, bool allowed, uint8 v, bytes32 r, bytes32 s) external;\n    function transfer(address dst, uint wad) external returns (bool);\n    function transferFrom(address src, address dst, uint wad) external returns (bool);\n}\n\ninterface UniswapExchange {\n    function tokenToEthTransferInput(\n        uint256 tokens_sold,\n        uint256 min_eth,\n        uint256 deadline,\n        address recipient\n    ) external returns (uint256  eth_bought);\n}\n\ncontract Gasless {\n    using SafeMath for uint;\n\n    uint MAX_UINT256 = 2**256-1;\n    MCD MCDContract;\n    UniswapExchange UniswapExchangeContract;\n    address relayer;\n    bytes32 public DOMAIN_SEPARATOR;\n    bytes32 public constant SEND_TYPEHASH = keccak256(\n        \"Send(address relayer,address to,uint256 value,uint256 fee,uint256 gasprice,uint256 nonce,uint256 deadline)\"\n    );\n    bytes32 public constant SWAP_TYPEHASH = keccak256(\n        \"Swap(address relayer,uint256 dai_sold,uint256 min_eth,uint256 fee,uint256 gasprice,uint256 nonce,uint256 deadline)\"\n    );\n\n    event RelayerChange(address newRelayer);\n\n    mapping (address => uint256) public nonces;\n\n    modifier onlyRelayer () {\n        require(msg.sender == relayer, \"Only the relayer address is authorized to send this tx\");\n        _;\n    }\n\n    constructor(address initialRelayer, address MCDaddress, address UniswapExchangeAddress, uint chainId) public {\n        MCDContract = MCD(MCDaddress);\n        UniswapExchangeContract = UniswapExchange(UniswapExchangeAddress);\n        relayer = initialRelayer;\n        DOMAIN_SEPARATOR = keccak256(abi.encode(\n            keccak256(\"EIP712Domain(string name,string version,uint256 chainId,address verifyingContract)\"),\n            keccak256(\"Gasless by Mosendo\"),\n            keccak256(bytes(\"1\")),\n            chainId,\n            address(this)\n        ));\n        approveUniswap();\n    }\n\n    function changeRelayer(address newRelayer) public onlyRelayer {\n        relayer = newRelayer;\n        emit RelayerChange(newRelayer);\n    }\n\n    function send(address to, uint value, uint nonce, uint fee, uint deadline, uint8 v, bytes32 r, bytes32 s) public onlyRelayer {\n        require(block.timestamp <= deadline, \"Deadline expired\");\n        bytes32 digest = keccak256(abi.encodePacked(\n                \"\\x19\\x01\",\n                DOMAIN_SEPARATOR,\n                keccak256(abi.encode(SEND_TYPEHASH,\n                                     relayer,\n                                     to,\n                                     value,\n                                     fee,\n                                     tx.gasprice,\n                                     nonce,\n                                     deadline))\n        ));\n        address from = ecrecover(digest, v, r, s);\n        require(nonce == nonces[from], \"Invalid nonce\");\n        nonces[from]++;\n        MCDContract.transferFrom(from, to, value.sub(fee));\n        MCDContract.transferFrom(from, msg.sender, fee);\n    }\n\n    function daiToEthSwap(\n        uint dai_sold,\n        uint min_eth,\n        uint nonce,\n        uint fee,\n        uint deadline,\n        uint8 v,\n        bytes32 r,\n        bytes32 s\n    ) public onlyRelayer {\n        require(block.timestamp <= deadline, \"Deadline expired\");\n        bytes32 digest = keccak256(abi.encodePacked(\n                \"\\x19\\x01\",\n                DOMAIN_SEPARATOR,\n                keccak256(abi.encode(SWAP_TYPEHASH,\n                                     relayer,\n                                     dai_sold,\n                                     min_eth,\n                                     fee,\n                                     tx.gasprice,\n                                     nonce,\n                                     deadline))\n        ));\n        address from = ecrecover(digest, v, r, s);\n        require(nonce == nonces[from], \"Invalid nonce\");\n        nonces[from]++;\n        MCDContract.transferFrom(from, msg.sender, fee);\n        MCDContract.transferFrom(from, address(this), dai_sold.sub(fee));\n        UniswapExchangeContract.tokenToEthTransferInput(dai_sold, min_eth, deadline, from);\n    }\n\n    function approveUniswap() public {\n        MCDContract.approve(address(UniswapExchangeContract), MAX_UINT256);\n    }\n\n}",
  "sourcePath": "/home/nour/code/gasless/contracts/Gasless.sol",
  "compiler": {
    "name": "solc",
    "version": "0.5.11+commit.c082d0b4.Emscripten.clang"
  },
  "schemaVersion": "3.0.16",
  "updatedAt": "2019-11-28T09:03:18.336Z",
  "devdoc": {
    "methods": {}
  },
  "userdoc": {
    "methods": {}
  }
}