{
  "contractName": "MockUniswapExchange",
  "abi": [
    {
      "constant": true,
      "inputs": [
        {
          "internalType": "uint256",
          "name": "",
          "type": "uint256"
        },
        {
          "internalType": "uint256",
          "name": "",
          "type": "uint256"
        },
        {
          "internalType": "uint256",
          "name": "",
          "type": "uint256"
        },
        {
          "internalType": "address",
          "name": "",
          "type": "address"
        }
      ],
      "name": "tokenToEthTransferInput",
      "outputs": [
        {
          "internalType": "uint256",
          "name": "",
          "type": "uint256"
        }
      ],
      "payable": false,
      "stateMutability": "pure",
      "type": "function"
    }
  ],
  "bytecode": "0x608060405234801561001057600080fd5b5060b38061001f6000396000f3fe6080604052348015600f57600080fd5b506004361060285760003560e01c80637237e03114602d575b600080fd5b606260048036036080811015604157600080fd5b50803590602081013590604081013590606001356001600160a01b03166074565b60408051918252519081900360200190f35b600094935050505056fea265627a7a723158206059049e0cc38e839f31349d14803631c182210267f7ae7eccbf5fb773cd3dca64736f6c634300050b0032",
  "source": "pragma solidity 0.5.11;\n\ncontract MockUniswapExchange {\n    function tokenToEthTransferInput(uint256, uint256, uint256, address) external pure returns (uint256) { return 0; }\n}",
  "sourcePath": "/home/nour/code/Gasless/contracts/MockUniswapExchange.sol",
  "compiler": {
    "name": "solc",
    "version": "0.5.11+commit.c082d0b4.Emscripten.clang"
  },
  "schemaVersion": "3.0.16",
  "updatedAt": "2019-10-24T08:54:02.084Z",
  "devdoc": {
    "methods": {}
  },
  "userdoc": {
    "methods": {}
  }
}