{
  "contractName": "MockMCD",
  "abi": [
    {
      "constant": true,
      "inputs": [
        {
          "internalType": "address",
          "name": "",
          "type": "address"
        },
        {
          "internalType": "uint256",
          "name": "",
          "type": "uint256"
        }
      ],
      "name": "approve",
      "outputs": [
        {
          "internalType": "bool",
          "name": "",
          "type": "bool"
        }
      ],
      "payable": false,
      "stateMutability": "pure",
      "type": "function"
    },
    {
      "constant": true,
      "inputs": [
        {
          "internalType": "address",
          "name": "",
          "type": "address"
        },
        {
          "internalType": "address",
          "name": "",
          "type": "address"
        },
        {
          "internalType": "uint256",
          "name": "",
          "type": "uint256"
        },
        {
          "internalType": "uint256",
          "name": "",
          "type": "uint256"
        },
        {
          "internalType": "bool",
          "name": "",
          "type": "bool"
        },
        {
          "internalType": "uint8",
          "name": "",
          "type": "uint8"
        },
        {
          "internalType": "bytes32",
          "name": "",
          "type": "bytes32"
        },
        {
          "internalType": "bytes32",
          "name": "",
          "type": "bytes32"
        }
      ],
      "name": "permit",
      "outputs": [],
      "payable": false,
      "stateMutability": "pure",
      "type": "function"
    },
    {
      "constant": true,
      "inputs": [
        {
          "internalType": "address",
          "name": "",
          "type": "address"
        },
        {
          "internalType": "address",
          "name": "",
          "type": "address"
        },
        {
          "internalType": "uint256",
          "name": "",
          "type": "uint256"
        }
      ],
      "name": "transferFrom",
      "outputs": [
        {
          "internalType": "bool",
          "name": "",
          "type": "bool"
        }
      ],
      "payable": false,
      "stateMutability": "pure",
      "type": "function"
    },
    {
      "constant": true,
      "inputs": [
        {
          "internalType": "address",
          "name": "",
          "type": "address"
        },
        {
          "internalType": "uint256",
          "name": "",
          "type": "uint256"
        }
      ],
      "name": "transfer",
      "outputs": [
        {
          "internalType": "bool",
          "name": "",
          "type": "bool"
        }
      ],
      "payable": false,
      "stateMutability": "pure",
      "type": "function"
    }
  ],
  "bytecode": "0x608060405234801561001057600080fd5b50610173806100206000396000f3fe608060405234801561001057600080fd5b506004361061004c5760003560e01c8063095ea7b31461005157806323b872dd146100915780638fcbaf0c146100c7578063a9059cbb14610051575b600080fd5b61007d6004803603604081101561006757600080fd5b506001600160a01b038135169060200135610123565b604080519115158252519081900360200190f35b61007d600480360360608110156100a757600080fd5b506001600160a01b0381358116916020810135909116906040013561012b565b61012160048036036101008110156100de57600080fd5b506001600160a01b038135811691602081013590911690604081013590606081013590608081013515159060ff60a0820135169060c08101359060e00135610134565b005b600192915050565b60019392505050565b505050505050505056fea265627a7a723158206c7d3fc6a1f96c49144cfd2eac1682867b041f83f4a99de699f8d193e14dec1364736f6c634300050b0032",
  "source": "pragma solidity 0.5.11;\n\ncontract MockMCD {\n    function approve(address, uint) external pure returns (bool) { return true; }\n    function permit(address, address, uint256, uint256, bool, uint8, bytes32, bytes32) external pure {}\n    function transferFrom(address, address, uint) external pure returns (bool) { return true; }\n    function transfer(address, uint) external pure returns (bool) { return true; }\n}",
  "sourcePath": "/home/nour/code/Gasless/contracts/MockMCD.sol",
  "compiler": {
    "name": "solc",
    "version": "0.5.11+commit.c082d0b4.Emscripten.clang"
  },
  "schemaVersion": "3.0.16",
  "updatedAt": "2019-10-24T08:54:02.083Z",
  "devdoc": {
    "methods": {}
  },
  "userdoc": {
    "methods": {}
  }
}