{
  "contractName": "MockDSR",
  "abi": [
    {
      "constant": true,
      "inputs": [],
      "name": "chi",
      "outputs": [
        {
          "internalType": "uint256",
          "name": "",
          "type": "uint256"
        }
      ],
      "payable": false,
      "stateMutability": "view",
      "type": "function"
    },
    {
      "constant": true,
      "inputs": [
        {
          "internalType": "uint256",
          "name": "",
          "type": "uint256"
        }
      ],
      "name": "join",
      "outputs": [],
      "payable": false,
      "stateMutability": "pure",
      "type": "function"
    },
    {
      "constant": true,
      "inputs": [
        {
          "internalType": "uint256",
          "name": "",
          "type": "uint256"
        }
      ],
      "name": "exit",
      "outputs": [],
      "payable": false,
      "stateMutability": "pure",
      "type": "function"
    }
  ],
  "bytecode": "0x6080604052600160005534801561001557600080fd5b5060b3806100246000396000f3fe6080604052348015600f57600080fd5b5060043610603c5760003560e01c8063049878f31460415780637f8661a1146041578063c92aecc414605d575b600080fd5b605b60048036036020811015605557600080fd5b50356075565b005b60636078565b60408051918252519081900360200190f35b50565b6000548156fea265627a7a7231582020728371415725663d253fdaeac12ae7e2624853ca9fc6e1b63dab0884e7374764736f6c634300050b0032",
  "source": "pragma solidity 0.5.11;\n\ncontract MockDSR {\n\n    uint256 public chi = 1;\n\n    function join(uint) external pure {}\n    function exit(uint) external pure {}\n}",
  "sourcePath": "/home/nour/code/Gasless/contracts/MockDSR.sol",
  "compiler": {
    "name": "solc",
    "version": "0.5.11+commit.c082d0b4.Emscripten.clang"
  },
  "schemaVersion": "3.0.16",
  "updatedAt": "2019-10-24T08:54:02.083Z",
  "devdoc": {
    "methods": {}
  },
  "userdoc": {
    "methods": {}
  }
}